:020000040800F2
:10000000980600208D010008B5160008B7160008F4
:10001000BB160008BF160008C31600080000000049
:10002000000000000000000000000000C9160008E9
:10003000C716000800000000CB160008CD16000807
:10004000A7010008A7010008A7010008A7010008F0
:10005000A7010008A7010008A7010008A7010008E0
:10006000A7010008A7010008A7010008A7010008D0
:10007000A7010008A7010008A7010008A7010008C0
:10008000A7010008A7010008A7010008A7010008B0
:10009000A7010008A7010008A7010008A7010008A0
:1000A000A7010008A7010008A7010008A701000890
:1000B000A7010008A7010008A7010008A701000880
:1000C000A7010008A7010008A7010008A701000870
:1000D000A7010008A7010008A7010008A701000860
:1000E000A7010008A7010008A701000800F002F816
:1000F00000F03CF80AA090E8000C82448344AAF186
:100100000107DA4501D100F031F8AFF2090EBAE883
:100110000F0013F0010F18BFFB1A43F0010318473B
:100120002028000040280000103A24BF78C878C179
:10013000FAD8520724BF30C830C144BF04680C60ED
:10014000704700000023002400250026103A28BF35
:1001500078C1FBD8520728BF30C148BF0B60704739
:100160001FB501F0FEFA1FBD10B510BD01F0B9FAC0
:100170001146FFF7F5FF01F0C3F901F0D7FA03B418
:10018000FFF7F2FF03BC01F0E1FA000009488047E5
:1001900009480047FEE7FEE7FEE7FEE7FEE7FEE769
:1001A000FEE7FEE7FEE7FEE704480549054A064B81
:1001B0007047000095020008ED000008980000203C
:1001C00098060020980200209802002000200021BC
:1001D000674A126842F48032654B1A6000BF644A75
:1001E000126802F40031401C11B9B0F5A06FF6D1CD
:1001F0005F4A126812F4003F01D0012100E00021A3
:10020000012942D15B4A126842F01002594B1A6030
:100210001A46126822F003021A601A46126842F067
:1002200002021A60524A5268514B5A601A4652688A
:100230005A601A46526842F480625A601A465268FE
:1002400022F47C125A601A46526842F4E8125A604C
:100250001A46126842F080721A6000BF444A12685F
:1002600012F0007FFAD0424A526822F00302404B5B
:100270005A601A46526842F002025A6000BF3C4A75
:10028000526802F00C02082AF9D1704710B5FFF746
:100290009DFF10BD10B53648006840F0010034499C
:1002A00008600846406834490840314948600846BB
:1002B0000068324908402E4908600846006820F46A
:1002C000802008600846406820F4FE0048604FF433
:1002D0001F008860FFF7DAFF4FF0006028490860D0
:1002E00010BD10B5002000210022214B5B6803F0F7
:1002F0000C0020B1042806D0082828D107E0214BA3
:10030000214C236027E01F4B1F4C236023E0184B38
:100310005B6803F47011164B5B6803F480320223B0
:1003200003EB914122B9194B4B43174C23600DE06D
:100330000F4B5B6813F4003F04D0144B4B43124C3B
:10034000236003E00F4B4B430F4C236003E00D4B46
:100350000D4C236000BF00BF054B5B68C3F3031364
:100360000B4CE05C084B1B68C340074C236010BD7E
:1003700000100240002002400000FFF8FFFFF6FEE0
:1003800008ED00E000127A000000002000093D00A6
:100390000400002010B50446C748844208D101215A
:1003A000042000F018FB0021042000F014FB46E0BC
:1003B000C248844208D10121082000F00CFB002132
:1003C000082000F008FB3AE0BD48844208D1012132
:1003D000102000F000FB0021102000F0FCFA2EE0BD
:1003E000B848844208D10121202000F0F4FA00210D
:1003F000202000F0F0FA22E0B348844208D1012125
:10040000402000F0E8FA0021402000F0E4FA16E075
:10041000AE48844208D10121802000F0DCFA00219E
:10042000802000F0D8FA0AE0A948844207D10121CF
:10043000801500F0D0FA0021A01500F0CCFA10BD14
:1004400010B50121084600F0C6FA0021012000F095
:10045000C2FA10BD2DE9F04100220023002400253E
:100460000026002791F803C00CF00F0291F803C09A
:100470001CF0100F03D091F802C04CEA0202B1F850
:1004800000C01CF0FF0F31D0066800242BE04FF0B5
:10049000010C0CFA04F5B1F800C00CEA0503AB42FC
:1004A00020D1A5004FF00F0C0CFA05F7BE4302FA5D
:1004B00005FC4CEA060691F803C0BCF1280F06D1F2
:1004C0004FF0010C0CFA04FCC0F814C00AE091F8DB
:1004D00003C0BCF1480F05D14FF0010C0CFA04FC2D
:1004E000C0F810C0641C082CD1D30660B1F800C05D
:1004F000BCF1FF0F34DD466800242EE004F1080C47
:100500004FF0010808FA0CF5B1F800C00CEA050339
:10051000AB4221D1A5004FF00F0C0CFA05F7BE43FA
:1005200002FA05FC4CEA060691F803C0BCF1280F5C
:1005300005D104F1080C08FA0CF8C0F8148091F801
:1005400003C0BCF1480F07D104F1080C4FF00108BB
:1005500008FA0CF8C0F81080641C082CCED3466052
:10056000BDE8F0814FF6FF71018002218170042106
:10057000C17070470246002093680B4201D00120F1
:1005800000E0002070470146886880B2704702464C
:100590000020D3680B4201D0012000E0002070470A
:1005A0000146C86880B27047016170474161704779
:1005B0000AB1016100E041617047C16070474FF4CA
:1005C00080320A43826181618261826982697047F7
:1005D0000022404B1A684FF680731A4042EA00121C
:1005E0000A433C4B1A6070473B49C8617047F0B5FD
:1005F000002200230024002500F00046B6F1004F41
:1006000002D1344EF46901E0324E7468C0F3034500
:1006100082B200F44016B6F5401F08D124F0706491
:100620002C4E766826F070662A4F7E6012E000F449
:100630008016B6F5801F06D1032606FA05F39C4303
:1006400044F0706406E0460D360102FA06F6B44343
:1006500044F0706421B1460D360102FA06F63443C7
:1006600000F00046B6F1004F02D11A4EF46101E0ED
:10067000184E7460F0BD30B500228B071C0F0F239D
:1006800003FA04F2134B08338C1053F824409443BC
:100690008D1043F825408C1053F824308C07240F1C
:1006A00000FA04F423430B4C08348D1044F8253031
:1006B00030BD0A490860704700080140000C014045
:1006C000001001400014014000180140001C0140CE
:1006D000002001400000014000002042DC002042D8
:1006E000D848006840F00100D649086008464068D4
:1006F000D5490840D349486008460068D3490840B6
:10070000D04908600846006820F480200860084648
:10071000406820F4FE0048604FF41F008860704776
:10072000C849096821F48031C64A11601146096838
:1007300021F480211160B0F5803F03D0B0F5802F07
:100740000ED106E0BF49096841F48031BD4A11600D
:1007500007E0BC49096841F4A021BA4A116000E0F1
:1007600000BF00BF704710B50146002200230020E3
:100770004A11012A02D1B34C236806E0022A02D1B1
:10078000B04C236A01E0AF4C636A01F01F02012400
:1007900094401C4201D0012000E0002010BD70B543
:1007A00000240025002600BF3120FFF7DCFF0646AD
:1007B000641CB4F5A06F01D0002EF5D03120FFF7F6
:1007C000D2FF08B1012500E00025284670BD0021B8
:1007D0009C4A116821F0F80141EAC001116070479C
:1007E0009B49086070470022964B5A6822F47C129D
:1007F00040EA01031A43934B5A60704794490866D4
:10080000704700218F4A516821F003010143516074
:1008100070478C48406800F00C0070470021894AFE
:10082000516821F0F0010143516070470021854A71
:10083000516821F4E0610143516070470021814A11
:10084000516821F4605141EAC0015160704729B1FB
:100850007C4A527A02437B4B5A7206E0794A527ABA
:10086000C343DBB21A40774B5A727047794908602C
:1008700070470021734A516821F44041014351609F
:1008800070470021744A11706E4A82F820100128C6
:1008900002D0042808D103E001216F4A117004E05E
:1008A00005216D4A117000E000BF00BF70476B4921
:1008B000086070476349096A0143624A11627047E0
:1008C00067490860704730B50021002200230024EA
:1008D0005C4D6D6805F00C0121B1042905D0082993
:1008E00023D105E05F4D056022E05E4D05601FE00D
:1008F000544D6D6805F47012524D6D6805F48033E7
:10090000022505EB92421BB9574D554305600BE09C
:100910004C4D6D6815F4003F03D0534D55430560B1
:1009200002E0504D5543056002E04E4D056000BFAA
:1009300000BF444D6D6805F0F00109094B4D6C5C3A
:100940000568E54045603F4D6D6805F4E061090AC2
:10095000464D6C5C4568E54085603A4D6D6805F430
:100960006051C90A414D6C5C4568E540C560354D34
:100970006D6805F44041890B3C4D10356C5CC568D1
:10098000B5FBF4F5056130BD29B12E4A5269024329
:100990002C4B5A6104E02B4A52698243294B5A611D
:1009A000704729B1274A92690243264B9A6104E0B5
:1009B000244A92698243234B9A61704729B1214AA4
:1009C000D26902431F4BDA6104E01E4AD2698243B6
:1009D0001C4BDA61704729B11A4AD2680243194B9D
:1009E000DA6004E0174AD2688243164BDA60704737
:1009F00029B1144A12690243124B1A6104E0114AE8
:100A0000126982430F4B1A61704719490860704799
:100A10000F49C86470470B49C87170470948406A5C
:100A200040F0807007494862704701460020054A3F
:100A300092680A4201D0012000E00020704701497D
:100A400088727047001002400000FFF8FFFFF6FEBA
:100A500000004242D800424220100240800442423C
:100A60003C04424200127A0000093D0014000020BC
:100A700040044242002209E0002101E04B1C99B2EF
:100A800040F6B8339942F9DB531C9AB28242F3DB49
:100A900070474FF40072FF4B1A604FF48072FE4BA8
:100AA000C3F8142C4FF02002C3F8102CFB4AD0607E
:100AB0004FF02002F74B1A60A3F104031A604FF4C1
:100AC0008072F54BC3F8102CF44AD1604FF020022D
:100AD000F04B1A60A3F104031A604FF480721A609D
:100AE000704700B501210020FFF7D3FF4FF47A7063
:100AF000FFF7C0FF00210120FFF7CBFF41F290710B
:100B00001020FFF7C6FF4FF41C516020FFF7C1FF14
:100B100001216120FFF7BDFF02214620FFF7B9FF49
:100B200048F210011320FFF7B4FF48F2FE01122033
:100B3000FFF7AFFF4FF4A0610220FFF7AAFF41F2D9
:100B400030010320FFF7A5FF40F203313020FFF70B
:100B5000A0FF40F203313120FFF79BFF40F2033149
:100B60003220FFF796FF4FF440713320FFF791FFDB
:100B700003213420FFF78DFF40F203313520FFF7CA
:100B800088FF14213620FFF784FF40F2033137201D
:100B9000FFF77FFF40F203313820FFF77AFF40F282
:100BA00003313920FFF775FF4FF440713A20FFF70A
:100BB00070FF03213B20FFF76CFF40F203313C2024
:100BC000FFF767FF4FF4A0513D20FFF762FF4FF49E
:100BD00000719220FFF75DFF40F203319320FFF791
:100BE00058FF40F60D019020FFF753FF41F2180126
:100BF0000320FFF74EFF40F273110720FFF749FF74
:100C000000BD00B543F20801E320FFF742FF1221C7
:100C1000E720FFF73EFF41F23121EF20FFF739FFD8
:100C200000210120FFF735FF4FF4E0610220FFF7BC
:100C300030FF41F230010320FFF72BFF0021042099
:100C4000FFF727FF40F207210820FFF722FF0021CE
:100C50000920FFF71EFF00210A20FFF71AFF0021DD
:100C60000C20FFF716FF00210D20FFF712FF0021D7
:100C70000F20FFF70EFF00211020FFF70AFF0721CA
:100C80001120FFF706FF00211220FFF702FF0021CD
:100C90001320FFF7FEFE4FF47A70FFF7EBFE41F2F0
:100CA00090611020FFF7F5FE40F227211120FFF799
:100CB000F0FE3220FFF7DEFE1D211220FFF7E9FED5
:100CC0003220FFF7D7FE4FF400611320FFF7E1FE5B
:100CD00014212920FFF7DDFE0B212B20FFF7D9FE81
:100CE0003220FFF7C7FE00212020FFF7D2FE0021AF
:100CF0002120FFF7CEFE07213020FFF7CAFE40F289
:100D000007713120FFF7C5FE06213220FFF7C1FE33
:100D100040F204713520FFF7BCFE41F60471362025
:100D2000FFF7B7FE04213720FFF7B3FE002138207C
:100D3000FFF7AFFE40F206713920FFF7AAFE40F23E
:100D400001713C20FFF7A5FE0F213D20FFF7A1FE1A
:100D500000215020FFF79DFEEF215120FFF799FE63
:100D600000215220FFF795FE40F23F115320FFF77C
:100D700090FE4FF41C516020FFF78BFE0121612093
:100D8000FFF787FE00216A20FFF783FE0021802005
:100D9000FFF77FFE00218120FFF77BFE00218220EC
:100DA000FFF777FE00218320FFF773FE00218420E8
:100DB000FFF76FFE00218520FFF76BFE10219020CA
:100DC000FFF767FE00219220FFF763FE03219320C7
:100DD000FFF75FFE4FF488719520FFF75AFE002160
:100DE0009720FFF756FE00219820FFF752FE41F2B0
:100DF00018010320FFF74DFE40F273110720FFF7A3
:100E000048FE00BD08B54FF6FF70ADF800000320A6
:100E10008DF8020010208DF8030069461F48FFF787
:100E200019FB08BD08B54FF6FF70ADF800000320B0
:100E30008DF8020048208DF8030069461748FFF737
:100E400009FB08BD70B504464FF4007011490860F5
:100E50004FF480701049C1F8140C4FF02000C1F815
:100E6000100C0E48C4604FF020000A490860A1F140
:100E7000040108604FF480700860FFF7D3FF4FF45F
:100E800080600549C1F8140C0448806885B20815D3
:100E9000034907E0140C014000000140001001402C
:100EA000100C01400860FFF7ADFF4FF40070FF49E0
:100EB0000860284670BD08B501211820FFF771FDB4
:100EC00001212020FFF76DFD4FF4E460ADF8000034
:100ED00001208DF8020010208DF803006946F348C8
:100EE0001038FFF7B7FAFFF78DFFF048006840F4BD
:100EF000C460EF49C1F8100C08BD10B5FFF7DBFF67
:100F00000020FFF79FFFEB49088008460088A0F506
:100F10000241303902D1FFF7E4FD01E0FFF771FE35
:100F20000020FFF78FFFE349088010BDE2490880E9
:100F30007047E149891C0880704730B504460D466A
:100F400021462020FFF7A5FD29462120FFF7A1FD1E
:100F500030BD4FF40071D94A11604FF48071D44A0A
:100F6000C2F8101C4FF02001C2F8101CD449C86010
:100F70004FF02001D14A1160CC4A11604FF48071CA
:100F800011604FF40071116070474FF40070CB494D
:100F900008604FF48070C649C1F8140C4FF020006F
:100FA000C24908604FF02200C549C8604FF02000D8
:100FB000C2490860BD4908604FF4807008604FF472
:100FC0000070086070472DE9F04304460D46164650
:100FD0000027B846B946A14629464846FFF7ADFF67
:100FE00000BF23E0FFF7D1FF4FF0000812E036F812
:100FF0001710012000FA08F0014205D1AE48801C0C
:101000000088FFF7A6FF03E0AB480088FFF7A1FFC9
:1010100008F10108B8F1100FE9D309F1010000F05F
:10102000FF0929464846FFF788FF7F1C182FD9D3B0
:10103000BDE8F08370B504460E461546A5F12000C4
:10104000C5B205EB45009F4901EB00123146204631
:10105000FFF7B9FF70BDF0B504460D46002640F21B
:101060003F1709E02A7839462046FFF7E3FFA7F14A
:10107000100087B26D1C761C287808B1142EF1D3AD
:10108000F0BD10B5044690A12046FFF7E4FF10BD67
:1010900030B50546002400210846FFF74EFFFFF754
:1010A00074FF00BF03E02846FFF753FF641CB4F54C
:1010B000963FF8D330BDF0B504460D4616461F46A0
:1010C000B44206DBA01B401C81B25020FFF7E1FCBC
:1010D00003E000215020FFF7DCFC21465120FFF700
:1010E000D8FCBD4206DBE81B401C81B25220FFF752
:1010F000D0FC03E000215220FFF7CBFC294653200F
:10110000FFF7C7FC29462046FFF717FFF0BD00B5E3
:101110004FF4A073F022591EEF20FFF7CCFF41F2ED
:1011200018010320FFF7B5FC00BD2DE9F04104468E
:101130000D4616469846002729462046FFF7FDFE35
:10114000B8F1000F0BD1FFF720FF00BF04E05A48B1
:101150000088FFF7FEFE7F1CB742F8D310E000279F
:101160000CE0FFF712FF54480088FFF7F2FE601C06
:10117000C4B229462046FFF7E0FE7F1CB742F0D3F9
:10118000BDE8F081F0B504460D4616461F46002323
:101190003A4629462046FFF7C8FFA119C8B20023E6
:1011A0003A462946FFF7C1FF012332462946204629
:1011B000FFF7BBFFE81B401C81B2012332462046EB
:1011C000FFF7B3FFF0BD2DE9F04304460D46164688
:1011D0000320A0EB46074FF00008B1469CE005EB6A
:1011E000090291B204EB0802D0B2FFF7A6FEFFF7A6
:1011F000CCFE31480088FFF7ACFEA5EB090291B2A6
:1012000004EB0802D0B2FFF798FEFFF7BEFE2A48B3
:101210000088FFF79EFE05EB090291B2A4EB0802DD
:10122000D0B2FFF78AFEFFF7B0FE23480088FFF731
:1012300090FEA5EB090291B2A4EB0802D0B2FFF731
:101240007CFEFFF7A2FE1C480088FFF782FE05EB3C
:10125000080291B204EB0902D0B2FFF76EFEFFF76D
:1012600094FE15480088FFF774FEA5EB080291B2C2
:1012700004EB0902D0B2FFF760FEFFF786FE0E48CE
:101280000088FFF766FE05EB080291B2A4EB0902A5
:10129000D0B2FFF752FEFFF778FE07480088FFF74D
:1012A00058FEA5EB080291B21AE00000100C0140B4
:1012B000000001402C00002028000020140C0140F8
:1012C000001001407017000820202020202020203E
:1012D000202020202020202020202020000000008E
:1012E000A4EB0902D0B2FFF728FEFFF74EFE7B48C1
:1012F0000088FFF72EFE002F04DA062000EB88009E
:10130000074407E0A8EB09000A2101EB800007442D
:10131000A9F1010908F10108C8457FF660AFBDE8F1
:10132000F08370B504460025002640F23F110020EE
:10133000FFF703FEFFF729FE00BF15E0002610E0CF
:1013400054F825100120B040014205D16348801CAB
:101350000088FFF7FEFD03E060480088FFF7F9FD15
:10136000761C202EECD36D1CB5F5166FE6D370BD40
:1013700070B50446002500266688A08846EA004627
:101380006589A08945EA0045701B46082C4441F256
:1013900008010320FFF77DFBFFF7F7FD002504E0C0
:1013A0002088FFF7D6FDA41C6D1CB542F8D341F28E
:1013B00018010320FFF76DFB70BD10B54FF40070EE
:1013C000474908604FF480704649C1F8140C4FF04B
:1013D0002000454908604FF022004449C8604FF0A2
:1013E00020003F490860404908604FF48070086061
:1013F000FFF718FD4FF480603A49C1F8140C3B48E0
:10140000806884B2081538490860FFF7FBFC4FF488
:10141000007035490860204610BD00B5002110203D
:10142000FFF737FB00211120FFF733FB00211220CB
:10143000FFF72FFB00211320FFF72BFB1420FFF7F2
:1014400019FB41F2B0711020FFF723FB40F2371176
:101450001120FFF71EFB0520FFF70CFB40F23911AE
:101460001220FFF716FB0520FFF704FB4FF4E851AD
:101470001320FFF70EFB13212920FFF70AFB05209D
:10148000FFF7F8FA40F273110720FFF702FB00BDE7
:1014900000B540F273110720FFF7FBFA00BD00B55D
:1014A00000210720FFF7F5FA00BD30B50446002102
:1014B0000846FFF742FDFFF768FD002509E014F834
:1014C00015206900491C615C42EA0120FFF741FDDB
:1014D0006D1CB5F5963FF2DB30BD00002800002002
:1014E000140C014000000140100C014000100140AC
:1014F0006149086000BF604909680029FBD1704755
:1015000010B55E4909684FF47A72B1FBF2F0B0F1A0
:10151000807F00D31CE020F07F41491E4FF0E02285
:10152000516100BF5117002905DA0F210901544A02
:101530000B23D15404E00F210901524A5317D1540F
:1015400000BF00214FF0E02291610721116100BF2F
:10155000C820FFF7CDFFFFF7D0FC1F20FFF798FD55
:101560001F20FFF7E6FC4FF6FF70FFF7DFFC0023BC
:101570004FF4A07219467820FFF7D7FD0123F0221F
:10158000A0210020FFF7D1FD4FF47A70FFF7B0FFE4
:101590001F20FFF77DFD64231A46D2214620FFF766
:1015A000F1FD4FF47A70FFF7A3FF1F20FFF770FDE6
:1015B0003222A0217820FFF706FE4FF47A70FFF761
:1015C00097FF1F20FFF764FD2FA16020FFF743FD69
:1015D0004FF47A70FFF78CFF4FF6FF70FFF7A9FC0E
:1015E0002EA10020FFF737FD0020FFF7A2FC2BA162
:1015F0001820FFF730FD4FF2DE70FFF79AFC27A1AD
:101600003020FFF728FD1F20FFF793FC23A148207F
:10161000FFF721FD40F21F50FFF78BFC1FA1602058
:10162000FFF719FD4FF47840FFF783FC1BA17820EA
:10163000FFF711FD4FF61F00FFF77BFC17A190206D
:10164000FFF709FD4FF4FC60FFF773FC13A1A8201E
:10165000FFF701FD47F6FF70FFF76BFC0FA1C020FD
:10166000FFF7F9FC4FF6E070FFF763FC0BA1D82001
:10167000FFF7F1FC00BFFEE7300000200000002073
:1016800018ED00E000E400E02020202048656C6CAC
:101690006F2C776F726C642E202020002020202079
:1016A000202020202020202020202020202020203A
:1016B00000000000704700BFFEE700BFFEE700BF6C
:1016C000FEE700BFFEE770477047704702480068BA
:1016D000401E014908607047300000207047704785
:1016E0007047754600F028F8AE4605006946534637
:1016F00020F00700854618B020B5FEF755FDBDE87F
:1017000020404FF000064FF000074FF000084FF068
:10171000000B21F00701AC46ACE8C009ACE8C009F9
:10172000ACE8C009ACE8C0098D4670470446AFF389
:1017300000802046FEF723FD00487047340000205B
:1017400001487047704700003800002003494FF0FF
:101750001800ABBE70470000090000002600020020
:10176000704710B5FFF7ECFF4FF00001016010BDAE
:101770000000000000000000000000000000000069
:101780000000000000000000000000000000000059
:101790000000000000000000000000000000000049
:1017A00000008001800180018001800180018001B2
:1017B0008001800180018001800180010000000023
:1017C0008001800100000000000000000000000017
:1017D00000000000CC00CC00CC00CC00CC00CC0041
:1017E00000000000000000000000000000000000F9
:1017F00000000000000000000000000000000000E9
:10180000000000000000000000000000600C600C00
:10181000600C30063006FE1FFE1F30063807180326
:10182000FE1FFE1F180318038C018C018C010000A1
:1018300000008000E003F80F9C0E8C1C8C188C00BC
:101840009800F801E007800E801C8C188C189C18FA
:10185000B80CF00FE00380008000000000000000E2
:101860000000000000000E181B0C110C11061106E0
:10187000110311039B018E01C038C06C60446044A9
:10188000304430441844186C0C380000000000004C
:101890000000E001F0033807180618063003F001D5
:1018A000F000F8009C310E33061E061C061C063F95
:1018B000FC73F021000000000000000000000000A8
:1018C000000000000C000C000C000C000C000C00D0
:1018D0000000000000000000000000000000000008
:1018E00000000000000000000000000000000000F8
:1018F0000000000200038001C000C0006000600022
:101900003000300030003000300030003000300057
:1019100060006000C000C000800100030002000001
:10192000000020006000C00080018001000300036F
:101930000006000600060006000600060006000677
:101940000003000380018001C0006000200000004F
:10195000000000000000000000000000C000C00007
:10196000D806F807E0013003380700000000000047
:101970000000000000000000000000000000000067
:101980000000000000000000000000008001800155
:10199000800180018001FC3FFC3F800180018001CB
:1019A0008001800100000000000000000000000035
:1019B0000000000000000000000000000000000027
:1019C0000000000000000000000000000000000017
:1019D0000000800180010001000180000000000083
:1019E00000000000000000000000000000000000F7
:1019F0000000000000000000E007E0070000000019
:101A000000000000000000000000000000000000D6
:101A100000000000000000000000000000000000C6
:101A200000000000000000000000000000000000B6
:101A30000000C000C0000000000000000000000026
:101A40000000000C000C0006000600060003000366
:101A500000038003800180018001C000C000C0003D
:101A600060006000000000000000000000000000B6
:101A70000000E003F007380E180C0C180C180C18B6
:101A80000C180C180C180C180C180C18180C380E14
:101A9000F007E0030000000000000000000000006C
:101AA000000000018001C001F0019801880180015F
:101AB000800180018001800180018001800180011E
:101AC0008001800100000000000000000000000014
:101AD0000000E003F80F180C0C180C180018001880
:101AE000000C000600038001C000600030001800F8
:101AF000FC1FFC1F000000000000000000000000B0
:101B00000000E001F807180E0C0C0C0C000C00068D
:101B1000C003C007000C001800180C180C18180C93
:101B2000F807E003000000000000000000000000D3
:101B30000000000C000E000F000F800DC00C600CA8
:101B4000600C300C180C0C0CFC3FFC3F000C000C23
:101B5000000C000C0000000000000000000000006D
:101B60000000F80FF80F180018000C00EC03FC0739
:101B70001C0E001C0018001800180C181C0C180E65
:101B8000F807E00300000000000000000000000073
:101B90000000C007F00F381C181818000C00CC0308
:101BA000EC0F3C0E1C1C0C180C180C18181C380ED2
:101BB000F007E0030000000000000000000000004B
:101BC0000000FC1FFC1F000C000600060003800341
:101BD0008001C001C000E0006000600070003000C3
:101BE0003000300000000000000000000000000095
:101BF0000000E003F007380E180C180C180C38061B
:101C0000F007F007180C0C180C180C180C18380CEE
:101C1000F80FE003000000000000000000000000DA
:101C20000000E003F007380E1C0C0C180C180C1800
:101C30001C1C381EF81BE0190018000C000C1C0EB0
:101C4000F807F001000000000000000000000000A4
:101C50000000000000000000000000008001800182
:101C60000000000000000000000000000000000074
:101C70008001800100000000000000000000000062
:101C80000000000000000000000000008001800152
:101C90000000000000000000000000000000000044
:101CA00080018001000100018000000000000000B0
:101CB0000000000000000000000000000000000024
:101CC0000010001C800FE003F8001800F800E0038B
:101CD000800F001C00100000000000000000000049
:101CE00000000000000000000000000000000000F4
:101CF000F81F000000000000F81F000000000000B6
:101D000000000000000000000000000000000000D3
:101D100000000000000000000000000000000000C3
:101D200008003800F001C007001F0018001FC0079E
:101D3000F001380008000000000000000000000072
:101D40000000E003F80F180C0C180C180018000C19
:101D5000000600038001C000C000C00000000000B9
:101D6000C000C000000000000000000000000000F3
:101D700000000000E00718180420C229224A11447C
:101D800009440944094409221113E20C02400420C9
:101D90001818E0070000000000000000000000002C
:101DA000000080038003C006C006C006600C600C03
:101DB000301830183018F83FF83F1C700C600C6079
:101DC00006C006C000000000000000000000000087
:101DD0000000FC03FC0F0C0C0C180C180C180C0C5D
:101DE000FC07FC0F0C180C300C300C300C300C18AD
:101DF000FC1FFC07000000000000000000000000C5
:101E00000000C007F01F38381C300C700660060058
:101E10000600060006000600060006600C701C3076
:101E2000F01FE007000000000000000000000000BC
:101E30000000FE03FE0F060E0618061806300630D8
:101E40000630063006300630063006180618060E34
:101E5000FE0FFE0300000000000000000000000074
:101E60000000FC3FFC3F0C000C000C000C000C00C0
:101E7000FC1FFC1F0C000C000C000C000C000C00E4
:101E8000FC3FFC3F000000000000000000000000DC
:101E90000000F83FF83F180018001800180018005C
:101EA000F81FF81F18001800180018001800180074
:101EB00018001800000000000000000000000000F2
:101EC0000000E00FF83F3C780E6006E007C003001A
:101ED000030003FE03FE03C007C006C00EC03CF0B3
:101EE000F83FE00F000000000000000000000000CC
:101EF00000000C300C300C300C300C300C300C303E
:101F0000FC3FFC3F0C300C300C300C300C300C30F3
:101F10000C300C3000000000000000000000000049
:101F2000000080018001800180018001800180012A
:101F30008001800180018001800180018001800199
:101F4000800180010000000000000000000000008F
:101F50000000000600060006000600060006000657
:101F600000060006000600060006180618063807D8
:101F7000F003E0010000000000000000000000008D
:101F8000000006300618060C060606038601C60089
:101F900066007600DE008E0106030606060C0618B3
:101FA0000630066000000000000000000000000095
:101FB0000000180018001800180018001800180079
:101FC0001800180018001800180018001800180051
:101FD000F81FF81F000000000000000000000000D3
:101FE00000000EE01EF01EF01EF036D836D836D8AF
:101FF00036D866CC66CC66CCC6C6C6C6C6C6C6C60D
:1020000086C386C30000000000000000000000003E
:1020100000000C301C303C303C306C306C30CC302C
:10202000CC308C310C330C330C360C360C3C0C3C65
:102030000C380C3000000000000000000000000020
:102040000000E007F81F1C380E70066003C003C0D4
:1020500003C003C003C003C003C006600E701C3879
:10206000F81FE00700000000000000000000000072
:102070000000FC0FFC1F0C380C300C300C300C3006
:102080000C18FC1FFC070C000C000C000C000C00D2
:102090000C000C0000000000000000000000000028
:1020A0000000E007F81F1C380E70066003E003C054
:1020B00003C003C003C003C007E006630E3F1C3C1F
:1020C000F83FE0F700C00000000000000000000042
:1020D0000000FE0FFE1F06380630063006300638B8
:1020E000FE1FFE0706030606060C06180618063035
:1020F0000630066000000000000000000000000044
:102100000000E003F80F1C0C0C180C180C001C004D
:10211000F803E00F001E0038063006300E301C1C9D
:10212000F80FE007000000000000000000000000C1
:102130000000FE7FFE7F8001800180018001800120
:102140008001800180018001800180018001800187
:10215000800180010000000000000000000000007D
:1021600000000C300C300C300C300C300C300C30CB
:102170000C300C300C300C300C300C300C3018188B
:10218000F81FE00700000000000000000000000051
:10219000000003600630063006300C180C180C18CE
:1021A000180C180C380E30063006700760036003F8
:1021B000C001C0010000000000000000000000009D
:1021C00000000360C361C361C36166336633663375
:1021D0006633663366336C1B6C1B6C1B2C1A3C1EFF
:1021E000380E380E00000000000000000000000063
:1021F00000000FE00C7018303018700C600EC00733
:1022000080038003C003E006700C301C18180C30EB
:102210000E6007E000000000000000000000000069
:10222000000003C006600C301C383818300C600603
:10223000E007C003800180018001800180018001EE
:10224000800180010000000000000000000000008C
:102250000000FC7FFC7F006000300018000C0006CE
:1022600000038001C0006000300018000C00060070
:10227000FE7FFE7F00000000000000000000000064
:102280000000E003E00360006000600060006000A8
:10229000600060006000600060006000600060003E
:1022A00060006000600060006000E003E003000088
:1022B000000030003000600060006000C000C0001E
:1022C000C000C00180018001800100030003000301
:1022D00000060006000000000000000000000000F2
:1022E0000000E003E0030003000300030003000319
:1022F00000030003000300030003000300030003C6
:1023000000030003000300030003E003E0030000F8
:1023100000000000C001C0016003600360033006DC
:102320003006180C180C000000000000000000002F
:10233000000000000000000000000000000000009D
:10234000000000000000000000000000000000008D
:10235000000000000000000000000000000000007D
:102360000000FFFFFFFF0000000000000000000071
:1023700000000C000C000C000C000C000C00000015
:10238000000000000000000000000000000000004D
:10239000000000000000000000000000000000003D
:1023A000000000000000000000000000F003F8073B
:1023B0001C0C0C0C000FF00FF80C0C0C0C0C1C0F70
:1023C000F80FF018000000000000000000000000FE
:1023D000000018001800180018001800D803F80FA3
:1023E000380C181818181818181818181818380C45
:1023F000F80FD803000000000000000000000000FB
:10240000000000000000000000000000C003F00712
:10241000300E180C1800180018001800180C300E98
:10242000F007C003000000000000000000000000F2
:10243000000000180018001800180018C01BF01F3A
:10244000301C181818181818181818181818301CD4
:10245000F01FC01B00000000000000000000000092
:10246000000000000000000000000000C003F00FAA
:10247000300C1818F81FF81F180018003818301CF6
:10248000F00FC00700000000000000000000000086
:102490000000800FC00FC000C000C000F007F007B0
:1024A000C000C000C000C000C000C000C000C0002C
:1024B000C000C0000000000000000000000000009C
:1024C000000000000000000000000000E00DF80F18
:1024D000180E0C0C0C0C0C0C0C0C0C0C0C0C180E20
:1024E000F80FE00D000C0C0C1C06F807F0010000C2
:1024F000000018001800180018001800D807F80F7E
:10250000381C181818181818181818181818181827
:10251000181818180000000000000000000000005B
:102520000000C000C000000000000000C000C000AB
:10253000C000C000C000C000C000C000C000C0009B
:10254000C000C0000000000000000000000000000B
:102550000000C000C000000000000000C000C0007B
:10256000C000C000C000C000C000C000C000C0006B
:10257000C000C000C000C000C000F800780000002B
:1025800000000C000C000C000C000C000C0C0C06E5
:102590000C038C01CC006C00FC009C018C030C0330
:1025A0000C060C0C00000000000000000000000001
:1025B0000000C000C000C000C000C000C000C000DB
:1025C000C000C000C000C000C000C000C000C0000B
:1025D000C000C0000000000000000000000000007B
:1025E0000000000000000000000000007C3CFF7EB6
:1025F000C7E383C183C183C183C183C183C183C155
:1026000083C183C100000000000000000000000042
:102610000000000000000000000000009807F80F14
:10262000381C181818181818181818181818181806
:10263000181818180000000000000000000000003A
:10264000000000000000000000000000C003F00FC8
:10265000300C181818181818181818181818300CE2
:10266000F00FC003000000000000000000000000A8
:10267000000000000000000000000000D803F80F78
:10268000380C181818181818181818181818380CA2
:10269000F80FD803180018001800180018000000E0
:1026A000000000000000000000000000C01BF01F40
:1026B000301C181818181818181818181818301C62
:1026C000F01FC01B001800180018001800180000A8
:1026D000000000000000000000000000B007F00350
:1026E000700030003000300030003000300030002A
:1026F000300030000000000000000000000000007A
:10270000000000000000000000000000E003F003F3
:10271000380E180C3800F003C007000C180C380EE7
:10272000F007E003000000000000000000000000CF
:10273000000000008000C000C000C000F007F007EB
:10274000C000C000C000C000C000C000C000C00089
:10275000C00780070000000000000000000000002B
:102760000000000000000000000000001818181809
:102770001818181818181818181818181818381CB5
:10278000F01FE01900000000000000000000000041
:102790000000000000000000000000000C18180CF1
:1027A000180C180C30063006300660036003600316
:1027B000C001C00100000000000000000000000097
:1027C000000000000000000000000000C141C14105
:1027D000C3616363636363633636363636361C1C07
:1027E0001C1C1C1C00000000000000000000000079
:1027F0000000000000000000000000001C38381C31
:10280000300C600660036003600360036006300CF8
:10281000381C1C3800000000000000000000000010
:102820000000000000000000000000001830301818
:1028300030187018600C600CE00CC006C0068003F5
:102840008003800380018001C001F000700000005F
:10285000000000000000000000000000FC1FFC1F42
:10286000000C000600038001C0006000300018006A
:10287000FC1FFC1F00000000000000000000000022
:10288000000000038001C000C000C000C000C00004
:10289000C00060006000300060004000C000C00068
:1028A000C000C000C000C0008001000300000000A4
:1028B0000000800180018001800180018001800191
:1028C0008001800180018001800180018001800100
:1028D0008001800180018001800180018001000071
:1028E00000006000C000C001800180018001800103
:1028F0008001000300030006000300018001800145
:102900008001800180018001C000600000000000A3
:1029100000000000000000000000000000000000B7
:10292000F010F81F080F0000000000000000000079
:102930000000000000000000000000000000000097
:102940006029000800000020340000002801000871
:1029500094290008340000206406000044010008A7
:1029600000A24A040000000000000000010203046D
:102970000607080900000000010203040102030425
:1029800006070809020406080000FFFF0000000017
:042990000000000043
:04000005080000ED02
:00000001FF
